{
  "contractName": "BasicDataTypes",
  "abi": [
    {
      "constant": true,
      "inputs": [],
      "name": "flag",
      "outputs": [
        {
          "internalType": "bool",
          "name": "",
          "type": "bool"
        }
      ],
      "payable": false,
      "stateMutability": "view",
      "type": "function"
    },
    {
      "constant": true,
      "inputs": [],
      "name": "owner",
      "outputs": [
        {
          "internalType": "address",
          "name": "",
          "type": "address"
        }
      ],
      "payable": false,
      "stateMutability": "view",
      "type": "function"
    },
    {
      "constant": false,
      "inputs": [
        {
          "internalType": "address",
          "name": "addr",
          "type": "address"
        }
      ],
      "name": "initialBal",
      "outputs": [
        {
          "internalType": "uint256",
          "name": "",
          "type": "uint256"
        }
      ],
      "payable": false,
      "stateMutability": "nonpayable",
      "type": "function"
    },
    {
      "constant": true,
      "inputs": [],
      "name": "getBal",
      "outputs": [
        {
          "internalType": "uint256",
          "name": "",
          "type": "uint256"
        }
      ],
      "payable": false,
      "stateMutability": "view",
      "type": "function"
    }
  ],
  "bytecode": "0x608060405260ff6000806101000a81548160ff021916908360ff1602179055506001600060156101000a81548160ff02191690831515021790555034801561004657600080fd5b50610238806100566000396000f3fe608060405234801561001057600080fd5b506004361061004c5760003560e01c806325caa26214610051578063890eba681461006f5780638da5cb5b14610091578063edf0c763146100db575b600080fd5b610059610133565b6040518082815260200191505060405180910390f35b61007761013d565b604051808215151515815260200191505060405180910390f35b610099610150565b604051808273ffffffffffffffffffffffffffffffffffffffff1673ffffffffffffffffffffffffffffffffffffffff16815260200191505060405180910390f35b61011d600480360360208110156100f157600080fd5b81019080803573ffffffffffffffffffffffffffffffffffffffff169060200190929190505050610176565b6040518082815260200191505060405180910390f35b6000600154905090565b600060159054906101000a900460ff1681565b600060019054906101000a900473ffffffffffffffffffffffffffffffffffffffff1681565b600081600060016101000a81548173ffffffffffffffffffffffffffffffffffffffff021916908373ffffffffffffffffffffffffffffffffffffffff160217905550600060019054906101000a900473ffffffffffffffffffffffffffffffffffffffff1673ffffffffffffffffffffffffffffffffffffffff1631600181905550600154905091905056fea265627a7a7231582032784c0792f551985b9c172460d1167db3f3fde3513e0c270dda1797d412060664736f6c63430005100032",
  "source": "// SPDX-License-Identifier: MIT\npragma solidity >=0.4.22 <0.9.0;\n\ncontract BasicDataTypes {\n    uint8 a = 255; // 1 bytes unsigned integer\n    address public owner; // Address types variable, called owner\n    bool public flag = true;\n    uint256 ownerInitialBalance; // uint type variable\n\n    // Function takes in an address, and returns the balance of this address\n    function initialBal(address addr) public returns (uint256) {\n        owner = addr;\n        ownerInitialBalance = owner.balance;\n        // if(1){ } will not compile\n        if (1 > 0) {\n            // This will work because expression evaluates to bool\n            // Do something\n        }\n        return ownerInitialBalance;\n    }\n\n    function getBal() public view returns (uint256) {\n        return ownerInitialBalance;\n    }\n}\n",
  "sourcePath": "/Users/angshumanhalder/Documents/blockchain-tuts/solidity/contracts/BasicDataTypes.sol",
  "compiler": {
    "name": "solc",
    "version": "0.5.16+commit.9c3226ce.Emscripten.clang"
  },
  "schemaVersion": "3.4.1",
  "updatedAt": "2021-06-30T06:18:30.104Z",
  "devdoc": {
    "methods": {}
  },
  "userdoc": {
    "methods": {}
  }
}