{
  "contractName": "TypeConversion",
  "abi": [
    {
      "constant": false,
      "inputs": [],
      "name": "conversion",
      "outputs": [],
      "payable": false,
      "stateMutability": "nonpayable",
      "type": "function"
    }
  ],
  "bytecode": "0x608060405260ff6000806101000a81548160ff021916908360ff160217905550348015602a57600080fd5b50609d806100396000396000f3fe6080604052348015600f57600080fd5b506004361060285760003560e01c80639311ca6914602d575b600080fd5b60336035565b005b60008060009054906101000a900460ff1660ff169050806000806101000a81548160ff021916908360ff1602179055505056fea265627a7a723158207bbab9f53c8b8fbda49396b1603359fbca24150143debaa787cc95bfcfc8c0f664736f6c63430005100032",
  "source": "// SPDX-License-Identifier: MIT\npragma solidity >=0.4.22 <0.9.0;\n\ncontract TypeConversion {\n    uint8 a = 255;\n    uint256 ownerInitialBalance;\n\n    function conversion() public {\n        uint256 b;\n        b = a;\n\n        a = uint8(b);\n    }\n}\n",
  "sourcePath": "/Users/angshumanhalder/Documents/blockchain-tuts/solidity/contracts/TypeConversion.sol",
  "compiler": {
    "name": "solc",
    "version": "0.5.16+commit.9c3226ce.Emscripten.clang"
  },
  "schemaVersion": "3.4.1",
  "updatedAt": "2021-06-30T06:18:30.106Z",
  "devdoc": {
    "methods": {}
  },
  "userdoc": {
    "methods": {}
  }
}